:060000000A128A110C280F
:10000800FE00030EF3000A08F4000A128A119A2867
:100018000A128A110F280A128A11EF200A128A116D
:10002800F900F501F601F701F80183010A128A11B6
:100038001D280A128A115C200A128A1183120313DE
:100048009F182728282829289F147603031D2D2860
:100058002E283328831603130C1363003B287608D5
:10006800031D372838283B28831603130C177508F7
:100078000A128A11E0200A128A11831203138700D8
:10008800A33083120313A2005430A100A10B4A2805
:10009800A20B4A28000083120313851A54285528F6
:1000A800572885162228851222280A128A110C2818
:1000B8000130831603178800890101308316031362
:1000C800860083120313860101308316031385000B
:1000D80087018801831203138701880185013F3056
:1000E8009F05831603131F129F12C3308312031335
:1000F8009F05831603139F13831203131F140230E3
:1001080083120313A000A00B872800008312031397
:100118000C13831603130C170B178B17811301305D
:1001280095008B15013096000B10080083120313FD
:100138000C1F9F28A028A8281E08F2007208F800A3
:10014800780888000C13C4280B1CAB28AC28C428DA
:100158000618AF28B028C3287603031DB428B5288D
:10016800B728F601C3287808F2007208F00075086D
:100178000A128A11CB200A128A11F601F60A0B100C
:1001880074088A00730E8300FE0E7E0E0900F100CB
:100198007108831203178D0070088C0083160317EB
:1001A8008C130C158B1355308D00AA308D008C14D0
:1001B8000C110B108B17080083120313A0002008E2
:1001C800831203178D00831603178C130C148312E4
:0801D80003170C0808000134B4
:08400000FF3FFF3FFF3FFF3FC0
:04400E00D420FF3F7C
:00000001FF
